S00E00007461736B31312E7372656301
S11300000C9434000C9449000C9449000C9449005D
S11300100C9449000C9449000C9449000C94490038
S11300200C9449000C9449000C9449000C94490028
S11300300C9449000C9449000C9449000C94490018
S11300400C9449000C9449000C9449000C94490008
S11300500C9449000C9449000C9449000C944900F8
S11300600C9449000C94490011241FBECFEFD8E032
S1130070DEBFCDBF11E0A0E0B1E0E4E4F1E002C0F6
S113008005900D92A230B107D9F70E9491000C940B
S1130090A0000C940000589A59985A9808955898BA
S11300A0599A5A980895589859985A9A0895EAE787
S11300B0F0E0808180648083808184FFFDCF809123
S11300C078002091790090E0922B0895CF93DF93EC
S11300D00E945700EC018935924010F00E944B00B9
S11300E0CE018D5291408B32914010F40E944F000A
S11300F0CC32D14010F40E945300DF91CF91089587
S11301008AB187608AB9EAE7F0E0808180688083F9
S1130110ECE7F0E08081816080838081806480836B
S113012008950E94800080910001882331F00E948C
S11301306600809100018111FACF80E090E008957B
S1070140F894FFCF5D
S10501440100B4
S9030000FC
