S00E00007461736B38612E73726563CA
S11300000C9434000C943E000C943E000C943E007E
S11300100C943E000C943E000C943E000C943E0064
S11300200C943E000C943E000C943E000C943E0054
S11300300C943E000C943E000C943E000C943E0044
S11300400C943E000C943E000C943E000C943E0034
S11300500C943E000C943E000C943E000C943E0024
S11300600C943E000C943E0011241FBECFEFD8E048
S1130070DEBFCDBF0E9440000C944A000C940000E7
S113008016BC85E085BD92E0A89BFECF8BB1892785
S10B00908BB9FACFF894FFCFFD
S9030000FC
