:100000000C9434000C9449000C9449000C94490061
:100010000C9449000C9449000C9449000C9449003C
:100020000C9449000C9449000C9449000C9449002C
:100030000C9449000C9449000C9449000C9449001C
:100040000C9449000C9449000C9449000C9449000C
:100050000C9449000C9449000C9449000C944900FC
:100060000C9449000C94490011241FBECFEFD8E036
:10007000DEBFCDBF11E0A0E0B1E0EEECF0E002C0E9
:1000800005900D92A230B107D9F70E945B000C9445
:1000900065000C940000599A87EA91E60197F1F700
:1000A00000C00000599887EA91E60197F1F700C077
:1000B00000000895089580910001882319F00E949E
:0E00C0004B00F9CF80E090E00895F894FFCF58
:0200CE0001002F
:00000001FF
