:100000000C9434000C9449000C9449000C94490061
:100010000C9449000C9449000C9449000C9449003C
:100020000C9449000C9449000C9449000C9449002C
:100030000C9449000C9449000C9449000C9449001C
:100040000C9449000C9449000C9449000C9449000C
:100050000C9449000C9449000C9449000C944900FC
:100060000C9449000C94490011241FBECFEFD8E036
:10007000DEBFCDBF11E0A0E0B1E0E2EDF0E002C0F4
:1000800005900D92A230B107D9F70E945E000C9442
:1000900067000C940000569A559A84B5806C84BD14
:1000A00084B5806384BD84B5816084BD85B581607D
:1000B00085BD88EC87BD84E688BD08950E944B000D
:1000C000809100018111FECF80E090E00895F894C6
:0200D000FFCF60
:0200D20001002B
:00000001FF
