S00D00007461736B382E737265632C
S11300000C9434000C9449000C9449000C9449005D
S11300100C9449000C9449000C9449000C94490038
S11300200C9449000C9449000C9449000C94490028
S11300300C9449000C9449000C9449000C94490018
S11300400C9449000C9449000C9449000C94490008
S11300500C9449000C9449000C9449000C944900F8
S11300600C9449000C94490011241FBECFEFD8E032
S1130070DEBFCDBF11E0A0E0B1E0E2EDF0E002C0F0
S113008005900D92A230B107D9F70E945A000C9442
S113009067000C940000599A87EA91E60197F1F7FA
S11300A000C00000599887EA91E60197F1F700C073
S11300B00000089580910001882331F00E944B00D4
S11300C0809100018111FACF80E090E00895F894C6
S10500D0FFCF5C
S10500D2010027
S9030000FC
