S00D00007461736B392E737265632B
S11300000C9434000C9449000C9449000C9449005D
S11300100C9449000C9449000C9449000C94490038
S11300200C9449000C9449000C9449000C94490028
S11300300C9449000C9449000C945D000C94490004
S11300400C944B000C9449000C9449000C94490006
S11300500C9449000C9449000C9449000C944900F8
S11300600C9449000C94490011241FBECFEFD8E032
S1130070DEBFCDBF11E0A0E0B1E0EEE0F1E002C0F0
S113008005900D92A230B107D9F70E947C000C9420
S113009085000C9400001F920F920FB60F9211244A
S11300A08F939F939BB182E089278BB99F918F9106
S11300B00F900FBE0F901F9018951F920F920FB6BE
S11300C00F9211248F939F939BB182E089278BB960
S11300D09F918F910F900FBE0F901F901895519A7A
S11300E0599881E085BDEEE6F0E0808185608083EB
S11300F088EC87BD789408950E946F008091000178
S11101008111FECF80E090E00895F894FFCFC7
S105010E0100EA
S9030000FC
