:100000000C9434000C9449000C9449000C94490061
:100010000C9449000C9449000C9449000C9449003C
:100020000C9449000C9449000C9449000C9449002C
:100030000C9449000C9449000C9449000C9449001C
:100040000C9449000C9449000C9449000C9449000C
:100050000C9449000C9449000C9449000C944900FC
:100060000C9449000C94490011241FBECFEFD8E036
:10007000DEBFCDBF11E0A0E0B1E0ECEFF0E002C0E8
:1000800005900D92A230B107D9F70E9460000C9440
:100090007C000C9400002E988EBD0DB407FEFDCFA1
:1000A0008EB52E9A08958CB580648CBD8CB5806118
:1000B0008CBD8CB588608CBD84B18C6684B9089584
:1000C000CF930E94530010C0C0E08C2F0E944B00C1
:1000D0002FEB84ED91E0215080409040E1F700C08B
:1000E0000000CF5FCF3789F7809100018111ECCFFD
:0C00F00080E090E0CF910895F894FFCFDD
:0200FC00010001
:00000001FF
